:020000040000FA
:0400000010EF00F00D
:020004000000FA
:10002000620ED36E0F0EC16E956A8C908C923CEC72
:1000300000F08C808C823CEC00F015EF00F00000AA
:100040000000000000000000000012000000A40EEC
:1000500037EF00F00000400E37EF00F000001F0EF9
:1000600037EF00F000000E0E37EF00F0050E006EC7
:10007000002E38EF00F01200C80E58EF00F0640EAA
:1000800058EF00F0320E58EF00F0140E58EF00F069
:10009000120E58EF00F00F0E58EF00F00A0E58EF56
:1000A00000F0050E58EF00F0020E58EF00F0010EC0
:1000B000016EF90E006E0000002E5BEF00F0012EC5
:1000C00059EF00F01200C80E76EF00F0640E76EFE4
:1000D00000F0320E76EF00F0140E76EF00F01E0EF8
:1000E00076EF00F00A0E76EF00F0050E026E640E59
:1000F000016EF90E006E0000002E7BEF00F0012E65
:0C01000079EF00F0022E77EF00F0120003
:020000040030CA
:0100000000FF
:0100010009F5
:010002001FDE
:010003001EDE
:0100050001F9
:010006008178
:010008000FE8
:01000900C036
:01000A000FE6
:01000B00E014
:01000C000FE4
:01000D0040B2
:00000001FF
