:020000040000FA
:0400000010EF00F00D
:020004000000FA
:10002000620ED36E0F0EC16E956A106A105029ECE5
:1000300000F08C6E55EC00F0102A0A0E106216EFDC
:1000400000F0106A16EF00F040792430191202789F
:100050000010116E000EF86E000EF76E480EF66E70
:100060001150F6260800F5501200000000000000B4
:1000700000000000000012000000A40E4DEF00F090
:100080000000400E4DEF00F000001F0E4DEF00F09D
:1000900000000E0E4DEF00F0050E126E122E4EEF08
:1000A00000F01200C80E6EEF00F0640E6EEF00F06C
:1000B000320E6EEF00F0140E6EEF00F0120E6EEFC7
:1000C00000F00F0E6EEF00F00A0E6EEF00F0050E5E
:1000D0006EEF00F0020E6EEF00F0010E136EF90EDF
:1000E000126E0000122E71EF00F0132E6FEF00F071
:1000F0001200C80E8CEF00F0640E8CEF00F0320E90
:100100008CEF00F0140E8CEF00F01E0E8CEF00F060
:100110000A0E8CEF00F0050E146E640E136EF90ECD
:10012000126E0000122E91EF00F0132E8FEF00F0F0
:08013000142E8DEF00F0120007
:020000040030CA
:0100000000FF
:0100010009F5
:010002001FDE
:010003001EDE
:0100050001F9
:010006008178
:010008000FE8
:01000900C036
:01000A000FE6
:01000B00E014
:01000C000FE4
:01000D0040B2
:00000001FF
