:020000040000FA
:0400000010EF00F00D
:020004000000FA
:10002000620ED36E0F0EC16E9380956A8C6A006A61
:1000300081B018EF00F054EC00F081B018EF00F040
:1000400027EC00F081A022EF00F018EF00F0002A6A
:100050000A0E0060006A00508C6E12000000000062
:10006000000000000000000012000000A40E46EF97
:1000700000F00000400E46EF00F000001F0E46EFBB
:1000800000F000000E0E46EF00F0050E016E012E8E
:1000900047EF00F01200C80E67EF00F0640E67EF44
:1000A00000F0320E67EF00F0140E67EF00F0120E52
:1000B00067EF00F00F0E67EF00F00A0E67EF00F039
:1000C000050E67EF00F0020E67EF00F0010E026E02
:1000D000F90E016E0000012E6AEF00F0022E68EFAB
:1000E00000F01200C80E85EF00F0640E85EF00F0FE
:1000F000320E85EF00F0140E85EF00F01E0E85EF36
:1001000000F00A0E85EF00F0050E036E640E026E1D
:10011000F90E016E0000012E8AEF00F0022E88EF2A
:0A01200000F0032E86EF00F012003D
:020000040030CA
:0100000000FF
:0100010009F5
:010002001FDE
:010003001EDE
:0100050001F9
:010006008178
:010008000FE8
:01000900C036
:01000A000FE6
:01000B00E014
:01000C000FE4
:01000D0040B2
:00000001FF
